{
  "contractName": "landRegistration",
  "abi": [
    {
      "inputs": [],
      "payable": false,
      "stateMutability": "nonpayable",
      "type": "constructor"
    },
    {
      "constant": false,
      "inputs": [
        {
          "internalType": "address",
          "name": "_superAdmin",
          "type": "address"
        },
        {
          "internalType": "string",
          "name": "_village",
          "type": "string"
        }
      ],
      "name": "addSuperAdmin",
      "outputs": [],
      "payable": false,
      "stateMutability": "nonpayable",
      "type": "function"
    },
    {
      "constant": false,
      "inputs": [
        {
          "internalType": "string",
          "name": "_state",
          "type": "string"
        },
        {
          "internalType": "string",
          "name": "_district",
          "type": "string"
        },
        {
          "internalType": "string",
          "name": "_village",
          "type": "string"
        },
        {
          "internalType": "uint256",
          "name": "_surveyNumber",
          "type": "uint256"
        },
        {
          "internalType": "address payable",
          "name": "_OwnerAddress",
          "type": "address"
        },
        {
          "internalType": "uint256",
          "name": "_marketValue",
          "type": "uint256"
        },
        {
          "internalType": "uint256",
          "name": "id",
          "type": "uint256"
        }
      ],
      "name": "Registration",
      "outputs": [
        {
          "internalType": "bool",
          "name": "",
          "type": "bool"
        }
      ],
      "payable": false,
      "stateMutability": "nonpayable",
      "type": "function"
    },
    {
      "constant": true,
      "inputs": [
        {
          "internalType": "uint256",
          "name": "id",
          "type": "uint256"
        }
      ],
      "name": "landInfoOwner",
      "outputs": [
        {
          "internalType": "string",
          "name": "",
          "type": "string"
        },
        {
          "internalType": "string",
          "name": "",
          "type": "string"
        },
        {
          "internalType": "string",
          "name": "",
          "type": "string"
        },
        {
          "internalType": "uint256",
          "name": "",
          "type": "uint256"
        },
        {
          "internalType": "bool",
          "name": "",
          "type": "bool"
        },
        {
          "internalType": "address",
          "name": "",
          "type": "address"
        },
        {
          "internalType": "enum landRegistration.reqStatus",
          "name": "",
          "type": "uint8"
        }
      ],
      "payable": false,
      "stateMutability": "view",
      "type": "function"
    },
    {
      "constant": true,
      "inputs": [
        {
          "internalType": "uint256",
          "name": "id",
          "type": "uint256"
        }
      ],
      "name": "landInfoUser",
      "outputs": [
        {
          "internalType": "address",
          "name": "",
          "type": "address"
        },
        {
          "internalType": "uint256",
          "name": "",
          "type": "uint256"
        },
        {
          "internalType": "bool",
          "name": "",
          "type": "bool"
        },
        {
          "internalType": "address",
          "name": "",
          "type": "address"
        },
        {
          "internalType": "enum landRegistration.reqStatus",
          "name": "",
          "type": "uint8"
        }
      ],
      "payable": false,
      "stateMutability": "view",
      "type": "function"
    },
    {
      "constant": true,
      "inputs": [
        {
          "internalType": "string",
          "name": "_state",
          "type": "string"
        },
        {
          "internalType": "string",
          "name": "_district",
          "type": "string"
        },
        {
          "internalType": "string",
          "name": "_village",
          "type": "string"
        },
        {
          "internalType": "uint256",
          "name": "_surveyNumber",
          "type": "uint256"
        }
      ],
      "name": "computeId",
      "outputs": [
        {
          "internalType": "uint256",
          "name": "",
          "type": "uint256"
        }
      ],
      "payable": false,
      "stateMutability": "view",
      "type": "function"
    },
    {
      "constant": false,
      "inputs": [
        {
          "internalType": "uint256",
          "name": "id",
          "type": "uint256"
        }
      ],
      "name": "requstToLandOwner",
      "outputs": [
        {
          "internalType": "bool",
          "name": "",
          "type": "bool"
        }
      ],
      "payable": false,
      "stateMutability": "nonpayable",
      "type": "function"
    },
    {
      "constant": true,
      "inputs": [],
      "name": "viewAssets",
      "outputs": [
        {
          "internalType": "uint256[]",
          "name": "",
          "type": "uint256[]"
        }
      ],
      "payable": false,
      "stateMutability": "view",
      "type": "function"
    },
    {
      "constant": true,
      "inputs": [
        {
          "internalType": "uint256",
          "name": "property",
          "type": "uint256"
        }
      ],
      "name": "viewRequest",
      "outputs": [
        {
          "internalType": "address",
          "name": "",
          "type": "address"
        }
      ],
      "payable": false,
      "stateMutability": "view",
      "type": "function"
    },
    {
      "constant": false,
      "inputs": [
        {
          "internalType": "uint256",
          "name": "property",
          "type": "uint256"
        },
        {
          "internalType": "enum landRegistration.reqStatus",
          "name": "status",
          "type": "uint8"
        }
      ],
      "name": "processRequest",
      "outputs": [],
      "payable": false,
      "stateMutability": "nonpayable",
      "type": "function"
    },
    {
      "constant": false,
      "inputs": [
        {
          "internalType": "uint256",
          "name": "property",
          "type": "uint256"
        }
      ],
      "name": "makeAvailable",
      "outputs": [],
      "payable": false,
      "stateMutability": "nonpayable",
      "type": "function"
    },
    {
      "constant": false,
      "inputs": [
        {
          "internalType": "uint256",
          "name": "property",
          "type": "uint256"
        }
      ],
      "name": "buyProperty",
      "outputs": [],
      "payable": true,
      "stateMutability": "payable",
      "type": "function"
    },
    {
      "constant": true,
      "inputs": [
        {
          "internalType": "uint256",
          "name": "id",
          "type": "uint256"
        },
        {
          "internalType": "address",
          "name": "user",
          "type": "address"
        }
      ],
      "name": "findId",
      "outputs": [
        {
          "internalType": "uint256",
          "name": "",
          "type": "uint256"
        }
      ],
      "payable": false,
      "stateMutability": "view",
      "type": "function"
    }
  ],
  "bytecode": "0x608060405234801561001057600080fd5b5033600160006101000a81548173ffffffffffffffffffffffffffffffffffffffff021916908373ffffffffffffffffffffffffffffffffffffffff160217905550611e06806100616000396000f3fe6080604052600436106100a75760003560e01c80636fa830a6116100645780636fa830a61461082c5780639d01485f1461085a578063a27664ee1461092f578063ab05bae61461099e578063baa39e0514610a86578063fdb10f5014610ac1576100a7565b80630d2d5dca146100ac5780631d50a6c41461011857806326e852501461032c5780632b3009d3146103a757806355d61952146105f35780636c5ed939146107d9575b600080fd5b3480156100b857600080fd5b506100c1610b09565b6040518080602001828103825283818151815260200191508051906020019060200280838360005b838110156101045780820151818401526020810190506100e9565b505050509050019250505060405180910390f35b34801561012457600080fd5b506103166004803603608081101561013b57600080fd5b810190808035906020019064010000000081111561015857600080fd5b82018360208201111561016a57600080fd5b8035906020019184600183028401116401000000008311171561018c57600080fd5b91908080601f016020809104026020016040519081016040528093929190818152602001838380828437600081840152601f19601f820116905080830192505050505050509192919290803590602001906401000000008111156101ef57600080fd5b82018360208201111561020157600080fd5b8035906020019184600183028401116401000000008311171561022357600080fd5b91908080601f016020809104026020016040519081016040528093929190818152602001838380828437600081840152601f19601f8201169050808301925050505050505091929192908035906020019064010000000081111561028657600080fd5b82018360208201111561029857600080fd5b803590602001918460018302840111640100000000831117156102ba57600080fd5b91908080601f016020809104026020016040519081016040528093929190818152602001838380828437600081840152601f19601f82011690508083019250505050505050919291929080359060200190929190505050610ba1565b6040518082815260200191505060405180910390f35b34801561033857600080fd5b506103656004803603602081101561034f57600080fd5b8101908080359060200190929190505050610cdf565b604051808273ffffffffffffffffffffffffffffffffffffffff1673ffffffffffffffffffffffffffffffffffffffff16815260200191505060405180910390f35b3480156103b357600080fd5b506105d9600480360360e08110156103ca57600080fd5b81019080803590602001906401000000008111156103e757600080fd5b8201836020820111156103f957600080fd5b8035906020019184600183028401116401000000008311171561041b57600080fd5b91908080601f016020809104026020016040519081016040528093929190818152602001838380828437600081840152601f19601f8201169050808301925050505050505091929192908035906020019064010000000081111561047e57600080fd5b82018360208201111561049057600080fd5b803590602001918460018302840111640100000000831117156104b257600080fd5b91908080601f016020809104026020016040519081016040528093929190818152602001838380828437600081840152601f19601f8201169050808301925050505050505091929192908035906020019064010000000081111561051557600080fd5b82018360208201111561052757600080fd5b8035906020019184600183028401116401000000008311171561054957600080fd5b91908080601f016020809104026020016040519081016040528093929190818152602001838380828437600081840152601f19601f82011690508083019250505050505050919291929080359060200190929190803573ffffffffffffffffffffffffffffffffffffffff1690602001909291908035906020019092919080359060200190929190505050610d1e565b604051808215151515815260200191505060405180910390f35b3480156105ff57600080fd5b5061062c6004803603602081101561061657600080fd5b8101908080359060200190929190505050610fba565b60405180806020018060200180602001888152602001871515151581526020018673ffffffffffffffffffffffffffffffffffffffff1673ffffffffffffffffffffffffffffffffffffffff16815260200185600381111561068a57fe5b60ff16815260200184810384528b818151815260200191508051906020019080838360005b838110156106ca5780820151818401526020810190506106af565b50505050905090810190601f1680156106f75780820380516001836020036101000a031916815260200191505b5084810383528a818151815260200191508051906020019080838360005b83811015610730578082015181840152602081019050610715565b50505050905090810190601f16801561075d5780820380516001836020036101000a031916815260200191505b50848103825289818151815260200191508051906020019080838360005b8381101561079657808201518184015260208101905061077b565b50505050905090810190601f1680156107c35780820380516001836020036101000a031916815260200191505b509a505050505050505050505060405180910390f35b3480156107e557600080fd5b50610812600480360360208110156107fc57600080fd5b8101908080359060200190929190505050611283565b604051808215151515815260200191505060405180910390f35b6108586004803603602081101561084257600080fd5b8101908080359060200190929190505050611373565b005b34801561086657600080fd5b506108936004803603602081101561087d57600080fd5b8101908080359060200190929190505050611647565b604051808673ffffffffffffffffffffffffffffffffffffffff1673ffffffffffffffffffffffffffffffffffffffff168152602001858152602001841515151581526020018373ffffffffffffffffffffffffffffffffffffffff1673ffffffffffffffffffffffffffffffffffffffff16815260200182600381111561091757fe5b60ff1681526020019550505050505060405180910390f35b34801561093b57600080fd5b506109886004803603604081101561095257600080fd5b8101908080359060200190929190803573ffffffffffffffffffffffffffffffffffffffff16906020019092919050505061172d565b6040518082815260200191505060405180910390f35b3480156109aa57600080fd5b50610a84600480360360408110156109c157600080fd5b81019080803573ffffffffffffffffffffffffffffffffffffffff169060200190929190803590602001906401000000008111156109fe57600080fd5b820183602082011115610a1057600080fd5b80359060200191846001830284011164010000000083111715610a3257600080fd5b91908080601f016020809104026020016040519081016040528093929190818152602001838380828437600081840152601f19601f820116905080830192505050505050509192919290505050611802565b005b348015610a9257600080fd5b50610abf60048036036020811015610aa957600080fd5b8101908080359060200190929190505050611908565b005b348015610acd57600080fd5b50610b0760048036036040811015610ae457600080fd5b8101908080359060200190929190803560ff1690602001909291905050506119a6565b005b6060600360003373ffffffffffffffffffffffffffffffffffffffff1673ffffffffffffffffffffffffffffffffffffffff168152602001908152602001600020600001805480602002602001604051908101604052809291908181526020018280548015610b9757602002820191906000526020600020905b815481526020019060010190808311610b83575b5050505050905090565b60006509184e72a000858585856040516020018085805190602001908083835b60208310610be45780518252602082019150602081019050602083039250610bc1565b6001836020036101000a03801982511681845116808217855250505050505090500184805190602001908083835b60208310610c355780518252602082019150602081019050602083039250610c12565b6001836020036101000a03801982511681845116808217855250505050505090500183805190602001908083835b60208310610c865780518252602082019150602081019050602083039250610c63565b6001836020036101000a0380198251168184511680821785525050505050509050018281526020019450505050506040516020818303038152906040528051906020012060001c81610cd457fe5b069050949350505050565b600080600083815260200190815260200160002060060160019054906101000a900473ffffffffffffffffffffffffffffffffffffffff169050919050565b60003373ffffffffffffffffffffffffffffffffffffffff166002876040518082805190602001908083835b60208310610d6d5780518252602082019150602081019050602083039250610d4a565b6001836020036101000a038019825116818451168082178552505050505050905001915050908152602001604051809103902060009054906101000a900473ffffffffffffffffffffffffffffffffffffffff1673ffffffffffffffffffffffffffffffffffffffff161480610e3057503373ffffffffffffffffffffffffffffffffffffffff16600160009054906101000a900473ffffffffffffffffffffffffffffffffffffffff1673ffffffffffffffffffffffffffffffffffffffff16145b610e3957600080fd5b876000808481526020019081526020016000206000019080519060200190610e62929190611d00565b50866000808481526020019081526020016000206001019080519060200190610e8c929190611d00565b50856000808481526020019081526020016000206002019080519060200190610eb6929190611d00565b5084600080848152602001908152602001600020600301819055508360008084815260200190815260200160002060040160006101000a81548173ffffffffffffffffffffffffffffffffffffffff021916908373ffffffffffffffffffffffffffffffffffffffff1602179055508260008084815260200190815260200160002060050181905550600360008573ffffffffffffffffffffffffffffffffffffffff1673ffffffffffffffffffffffffffffffffffffffff16815260200190815260200160002060000182908060018154018082558091505090600182039060005260206000200160009091929091909150555060019050979650505050505050565b60608060606000806000806000808981526020019081526020016000206000016000808a81526020019081526020016000206001016000808b81526020019081526020016000206002016000808c8152602001908152602001600020600301546000808d815260200190815260200160002060060160009054906101000a900460ff166000808e815260200190815260200160002060060160019054906101000a900473ffffffffffffffffffffffffffffffffffffffff166000808f815260200190815260200160002060060160159054906101000a900460ff16868054600181600116156101000203166002900480601f01602080910402602001604051908101604052809291908181526020018280546001816001161561010002031660029004801561112b5780601f106111005761010080835404028352916020019161112b565b820191906000526020600020905b81548152906001019060200180831161110e57829003601f168201915b50505050509650858054600181600116156101000203166002900480601f0160208091040260200160405190810160405280929190818152602001828054600181600116156101000203166002900480156111c75780601f1061119c576101008083540402835291602001916111c7565b820191906000526020600020905b8154815290600101906020018083116111aa57829003601f168201915b50505050509550848054600181600116156101000203166002900480601f0160208091040260200160405190810160405280929190818152602001828054600181600116156101000203166002900480156112635780601f1061123857610100808354040283529160200191611263565b820191906000526020600020905b81548152906001019060200180831161124657829003601f168201915b505050505094509650965096509650965096509650919395979092949650565b600080600083815260200190815260200160002060060160009054906101000a900460ff166112b157600080fd5b3360008084815260200190815260200160002060060160016101000a81548173ffffffffffffffffffffffffffffffffffffffff021916908373ffffffffffffffffffffffffffffffffffffffff160217905550600080600084815260200190815260200160002060060160006101000a81548160ff021916908315150217905550600160008084815260200190815260200160002060060160156101000a81548160ff0219169083600381111561136557fe5b021790555060019050919050565b60038081111561137f57fe5b60008083815260200190815260200160002060060160159054906101000a900460ff1660038111156113ad57fe5b146113b757600080fd5b600a60008083815260200190815260200160002060050154816113d657fe5b0460008083815260200190815260200160002060050154013410156113fa57600080fd5b60008082815260200190815260200160002060040160009054906101000a900473ffffffffffffffffffffffffffffffffffffffff1673ffffffffffffffffffffffffffffffffffffffff166108fc600080848152602001908152602001600020600501549081150290604051600060405180830381858888f1935050505015801561148a573d6000803e3d6000fd5b506114ca60008083815260200190815260200160002060040160009054906101000a900473ffffffffffffffffffffffffffffffffffffffff1682611af9565b3360008083815260200190815260200160002060040160006101000a81548173ffffffffffffffffffffffffffffffffffffffff021916908373ffffffffffffffffffffffffffffffffffffffff160217905550600080600083815260200190815260200160002060060160006101000a81548160ff021916908315150217905550600080600083815260200190815260200160002060060160016101000a81548173ffffffffffffffffffffffffffffffffffffffff021916908373ffffffffffffffffffffffffffffffffffffffff160217905550600080600083815260200190815260200160002060060160156101000a81548160ff021916908360038111156115d357fe5b0217905550600360003373ffffffffffffffffffffffffffffffffffffffff1673ffffffffffffffffffffffffffffffffffffffff16815260200190815260200160002060000181908060018154018082558091505090600182039060005260206000200160009091929091909150555050565b600080600080600080600087815260200190815260200160002060040160009054906101000a900473ffffffffffffffffffffffffffffffffffffffff166000808881526020019081526020016000206005015460008089815260200190815260200160002060060160009054906101000a900460ff166000808a815260200190815260200160002060060160019054906101000a900473ffffffffffffffffffffffffffffffffffffffff166000808b815260200190815260200160002060060160159054906101000a900460ff168494509450945094509450945091939590929450565b600080600090505b600360008473ffffffffffffffffffffffffffffffffffffffff1673ffffffffffffffffffffffffffffffffffffffff168152602001908152602001600020600001805490508110156117f75783600360008573ffffffffffffffffffffffffffffffffffffffff1673ffffffffffffffffffffffffffffffffffffffff16815260200190815260200160002060000182815481106117d057fe5b906000526020600020015414156117ea57809150506117fc565b8080600101915050611735565b809150505b92915050565b600160009054906101000a900473ffffffffffffffffffffffffffffffffffffffff1673ffffffffffffffffffffffffffffffffffffffff163373ffffffffffffffffffffffffffffffffffffffff161461185c57600080fd5b816002826040518082805190602001908083835b602083106118935780518252602082019150602081019050602083039250611870565b6001836020036101000a038019825116818451168082178552505050505050905001915050908152602001604051809103902060006101000a81548173ffffffffffffffffffffffffffffffffffffffff021916908373ffffffffffffffffffffffffffffffffffffffff1602179055505050565b3373ffffffffffffffffffffffffffffffffffffffff1660008083815260200190815260200160002060040160009054906101000a900473ffffffffffffffffffffffffffffffffffffffff1673ffffffffffffffffffffffffffffffffffffffff161461197557600080fd5b600160008083815260200190815260200160002060060160006101000a81548160ff02191690831515021790555050565b3373ffffffffffffffffffffffffffffffffffffffff1660008084815260200190815260200160002060040160009054906101000a900473ffffffffffffffffffffffffffffffffffffffff1673ffffffffffffffffffffffffffffffffffffffff1614611a1357600080fd5b8060008084815260200190815260200160002060060160156101000a81548160ff02191690836003811115611a4457fe5b021790555060026003811115611a5657fe5b816003811115611a6257fe5b1415611af557600080600084815260200190815260200160002060060160016101000a81548173ffffffffffffffffffffffffffffffffffffffff021916908373ffffffffffffffffffffffffffffffffffffffff160217905550600080600084815260200190815260200160002060060160156101000a81548160ff02191690836003811115611aef57fe5b02179055505b5050565b6000611b05828461172d565b9050600360008473ffffffffffffffffffffffffffffffffffffffff1673ffffffffffffffffffffffffffffffffffffffff1681526020019081526020016000206000016001600360008673ffffffffffffffffffffffffffffffffffffffff1673ffffffffffffffffffffffffffffffffffffffff168152602001908152602001600020600001805490500381548110611b9c57fe5b9060005260206000200154600360008573ffffffffffffffffffffffffffffffffffffffff1673ffffffffffffffffffffffffffffffffffffffff1681526020019081526020016000206000018281548110611bf457fe5b9060005260206000200181905550600360008473ffffffffffffffffffffffffffffffffffffffff1673ffffffffffffffffffffffffffffffffffffffff1681526020019081526020016000206000016001600360008673ffffffffffffffffffffffffffffffffffffffff1673ffffffffffffffffffffffffffffffffffffffff168152602001908152602001600020600001805490500381548110611c9757fe5b9060005260206000200160009055600360008473ffffffffffffffffffffffffffffffffffffffff1673ffffffffffffffffffffffffffffffffffffffff168152602001908152602001600020600001805480919060019003611cfa9190611d80565b50505050565b828054600181600116156101000203166002900490600052602060002090601f016020900481019282601f10611d4157805160ff1916838001178555611d6f565b82800160010185558215611d6f579182015b82811115611d6e578251825591602001919060010190611d53565b5b509050611d7c9190611dac565b5090565b815481835581811115611da757818360005260206000209182019101611da69190611dac565b5b505050565b611dce91905b80821115611dca576000816000905550600101611db2565b5090565b9056fea265627a7a72315820cf4c57ccc4733a994bc42567c79a9bac3a9695bda66d96c3831802ee550867da64736f6c63430005100032",
  "source": "pragma solidity >=0.4.0 <0.6.0;\n\n//Land Details\ncontract landRegistration{\n    struct landDetails{\n        string state;\n        string district;\n        string village;\n        uint256 surveyNumber;\n        address payable CurrentOwner;\n        uint marketValue;\n        bool isAvailable;\n        address requester;\n        reqStatus requestStatus;\n\n    }\n\n\n    //request status\n    enum reqStatus {Default,pending,reject,approved}\n\n\n\n    //profile of a client\n    struct profiles{\n        uint[] assetList;\n        }\n\n\n    mapping(uint => landDetails) land;\n    address owner;\n    mapping(string => address) superAdmin;\n    mapping(address => profiles) profile;\n\n    //contract owner\n    constructor() public{\n        owner = msg.sender;\n    }\n    modifier onlyOwner {\n        require(msg.sender == owner);\n        _;\n    }\n\n    //adding village admins\n    function addSuperAdmin(address _superAdmin,string memory _village ) onlyOwner public {\n        superAdmin[_village]=_superAdmin;\n    }\n\n    //Registration of land details.\n    function Registration(string memory _state,string memory _district,\n        string memory _village,uint256 _surveyNumber,\n        address payable _OwnerAddress,uint _marketValue,uint id\n        ) public returns(bool) {\n        require(superAdmin[_village] == msg.sender || owner == msg.sender);\n        land[id].state = _state;\n        land[id].district = _district;\n        land[id].village = _village;\n        land[id].surveyNumber = _surveyNumber;\n        land[id].CurrentOwner = _OwnerAddress;\n        land[id].marketValue = _marketValue;\n        profile[_OwnerAddress].assetList.push(id);\n        return true;\n    }\n\n    //to view details of land for the owner\n    function landInfoOwner(uint id) public view returns(string memory,string memory,string memory,uint256,bool,address,reqStatus){\n        return(land[id].state,land[id].district,land[id].village,land[id].surveyNumber,land[id].isAvailable,land[id].requester,land[id].requestStatus);\n    }\n        //to view details of land for the buyer\n        function landInfoUser(uint id) public view returns(address,uint,bool,address,reqStatus){\n        return(land[id].CurrentOwner,land[id].marketValue,land[id].isAvailable,land[id].requester,land[id].requestStatus);\n    }\n\n    // to compute id for a land.\n    function computeId(string memory _state,string memory _district,string memory _village,uint _surveyNumber) public view returns(uint){\n        return uint(keccak256(abi.encodePacked(_state,_district,_village,_surveyNumber)))%10000000000000;\n    }\n\n    //push a request to the land owner\n    function requstToLandOwner(uint id) public returns(bool){\n        require(land[id].isAvailable);\n        land[id].requester=msg.sender;\n        land[id].isAvailable=false;\n        land[id].requestStatus = reqStatus.pending; //changes the status to pending.\n        return true;\n    }\n\n    //will show assets of the function caller\n    function viewAssets()public view returns(uint[] memory){\n        return (profile[msg.sender].assetList);\n    }\n\n    //viewing request for the lands\n    function viewRequest(uint property)public view returns(address){\n        return(land[property].requester);\n    }\n\n    //processing request for the land by accepting or rejecting\n    function processRequest(uint property,reqStatus status)public {\n        require(land[property].CurrentOwner == msg.sender);\n        land[property].requestStatus=status;\n        if(status == reqStatus.reject){\n            land[property].requester = address(0);\n            land[property].requestStatus = reqStatus.Default;\n        }\n    }\n\n    //availing land for sale.\n    function makeAvailable(uint property)public{\n        require(land[property].CurrentOwner == msg.sender);\n        land[property].isAvailable=true;\n    }\n\n    //buying the approved property\n    function buyProperty(uint property)public payable{\n        require(land[property].requestStatus == reqStatus.approved);\n        require(msg.value >= (land[property].marketValue+((land[property].marketValue)/10)));\n        land[property].CurrentOwner.transfer(land[property].marketValue);\n        removeOwnership(land[property].CurrentOwner,property);\n        land[property].CurrentOwner=msg.sender;\n        land[property].isAvailable=false;\n        land[property].requester = address(0);\n        land[property].requestStatus = reqStatus.Default;\n        profile[msg.sender].assetList.push(property); //adds the property to the asset list of the new owner.\n\n    }\n\n    //removing the ownership of seller for the land. and it is called by the buyProperty function\n    function removeOwnership(address previousOwner,uint id)private{\n        uint index = findId(id,previousOwner);\n        profile[previousOwner].assetList[index]=profile[previousOwner].assetList[profile[previousOwner].assetList.length-1];\n        delete profile[previousOwner].assetList[profile[previousOwner].assetList.length-1];\n        profile[previousOwner].assetList.length--;\n    }\n\n    //for finding the index of a particular id\n    function findId(uint id,address user)public view returns(uint){\n        uint i;\n        for(i=0;i<profile[user].assetList.length;i++){\n            if(profile[user].assetList[i] == id)\n                return i;\n        }\n        return i;\n    }\n}\n",
  "sourcePath": "/home/saish/Desktop/Capstone project/proui/contracts/landRegistration.sol",
  "compiler": {
    "name": "solc",
    "version": "0.5.16+commit.9c3226ce.Emscripten.clang"
  },
  "schemaVersion": "3.4.3",
  "updatedAt": "2021-12-03T09:11:56.223Z",
  "networkType": "ethereum",
  "devdoc": {
    "methods": {}
  },
  "userdoc": {
    "methods": {}
  }
}